{
  "_format": "hh-sol-artifact-1",
  "contractName": "FactoryNFT",
  "sourceName": "contracts/factoryNFT.sol",
  "abi": [
    {
      "inputs": [
        {
          "internalType": "string",
          "name": "_name",
          "type": "string"
        },
        {
          "internalType": "string",
          "name": "_symbol",
          "type": "string"
        },
        {
          "internalType": "string",
          "name": "_initBaseURI",
          "type": "string"
        },
        {
          "internalType": "string",
          "name": "_initNotRevealedUri",
          "type": "string"
        }
      ],
      "stateMutability": "nonpayable",
      "type": "constructor"
    },
    {
      "anonymous": false,
      "inputs": [
        {
          "indexed": true,
          "internalType": "address",
          "name": "owner",
          "type": "address"
        },
        {
          "indexed": true,
          "internalType": "address",
          "name": "approved",
          "type": "address"
        },
        {
          "indexed": true,
          "internalType": "uint256",
          "name": "tokenId",
          "type": "uint256"
        }
      ],
      "name": "Approval",
      "type": "event"
    },
    {
      "anonymous": false,
      "inputs": [
        {
          "indexed": true,
          "internalType": "address",
          "name": "owner",
          "type": "address"
        },
        {
          "indexed": true,
          "internalType": "address",
          "name": "operator",
          "type": "address"
        },
        {
          "indexed": false,
          "internalType": "bool",
          "name": "approved",
          "type": "bool"
        }
      ],
      "name": "ApprovalForAll",
      "type": "event"
    },
    {
      "anonymous": false,
      "inputs": [
        {
          "indexed": true,
          "internalType": "address",
          "name": "previousOwner",
          "type": "address"
        },
        {
          "indexed": true,
          "internalType": "address",
          "name": "newOwner",
          "type": "address"
        }
      ],
      "name": "OwnershipTransferred",
      "type": "event"
    },
    {
      "anonymous": false,
      "inputs": [
        {
          "indexed": true,
          "internalType": "address",
          "name": "from",
          "type": "address"
        },
        {
          "indexed": true,
          "internalType": "address",
          "name": "to",
          "type": "address"
        },
        {
          "indexed": true,
          "internalType": "uint256",
          "name": "tokenId",
          "type": "uint256"
        }
      ],
      "name": "Transfer",
      "type": "event"
    },
    {
      "inputs": [
        {
          "internalType": "address",
          "name": "",
          "type": "address"
        }
      ],
      "name": "addressMintedBalance",
      "outputs": [
        {
          "internalType": "uint256",
          "name": "",
          "type": "uint256"
        }
      ],
      "stateMutability": "view",
      "type": "function"
    },
    {
      "inputs": [
        {
          "internalType": "address",
          "name": "to",
          "type": "address"
        },
        {
          "internalType": "uint256",
          "name": "tokenId",
          "type": "uint256"
        }
      ],
      "name": "approve",
      "outputs": [],
      "stateMutability": "nonpayable",
      "type": "function"
    },
    {
      "inputs": [
        {
          "internalType": "address",
          "name": "owner",
          "type": "address"
        }
      ],
      "name": "balanceOf",
      "outputs": [
        {
          "internalType": "uint256",
          "name": "",
          "type": "uint256"
        }
      ],
      "stateMutability": "view",
      "type": "function"
    },
    {
      "inputs": [],
      "name": "baseExtension",
      "outputs": [
        {
          "internalType": "string",
          "name": "",
          "type": "string"
        }
      ],
      "stateMutability": "view",
      "type": "function"
    },
    {
      "inputs": [],
      "name": "baseURI",
      "outputs": [
        {
          "internalType": "string",
          "name": "",
          "type": "string"
        }
      ],
      "stateMutability": "view",
      "type": "function"
    },
    {
      "inputs": [],
      "name": "cost",
      "outputs": [
        {
          "internalType": "uint256",
          "name": "",
          "type": "uint256"
        }
      ],
      "stateMutability": "view",
      "type": "function"
    },
    {
      "inputs": [
        {
          "internalType": "uint256",
          "name": "tokenId",
          "type": "uint256"
        }
      ],
      "name": "getApproved",
      "outputs": [
        {
          "internalType": "address",
          "name": "",
          "type": "address"
        }
      ],
      "stateMutability": "view",
      "type": "function"
    },
    {
      "inputs": [
        {
          "internalType": "address",
          "name": "owner",
          "type": "address"
        },
        {
          "internalType": "address",
          "name": "operator",
          "type": "address"
        }
      ],
      "name": "isApprovedForAll",
      "outputs": [
        {
          "internalType": "bool",
          "name": "",
          "type": "bool"
        }
      ],
      "stateMutability": "view",
      "type": "function"
    },
    {
      "inputs": [
        {
          "internalType": "address",
          "name": "_user",
          "type": "address"
        }
      ],
      "name": "isWhitelisted",
      "outputs": [
        {
          "internalType": "bool",
          "name": "",
          "type": "bool"
        }
      ],
      "stateMutability": "view",
      "type": "function"
    },
    {
      "inputs": [],
      "name": "maxMintAmount",
      "outputs": [
        {
          "internalType": "uint256",
          "name": "",
          "type": "uint256"
        }
      ],
      "stateMutability": "view",
      "type": "function"
    },
    {
      "inputs": [],
      "name": "maxSupply",
      "outputs": [
        {
          "internalType": "uint256",
          "name": "",
          "type": "uint256"
        }
      ],
      "stateMutability": "view",
      "type": "function"
    },
    {
      "inputs": [
        {
          "internalType": "uint256",
          "name": "_mintAmount",
          "type": "uint256"
        }
      ],
      "name": "mint",
      "outputs": [],
      "stateMutability": "payable",
      "type": "function"
    },
    {
      "inputs": [],
      "name": "name",
      "outputs": [
        {
          "internalType": "string",
          "name": "",
          "type": "string"
        }
      ],
      "stateMutability": "view",
      "type": "function"
    },
    {
      "inputs": [],
      "name": "nftPerAddressLimit",
      "outputs": [
        {
          "internalType": "uint256",
          "name": "",
          "type": "uint256"
        }
      ],
      "stateMutability": "view",
      "type": "function"
    },
    {
      "inputs": [],
      "name": "notRevealedUri",
      "outputs": [
        {
          "internalType": "string",
          "name": "",
          "type": "string"
        }
      ],
      "stateMutability": "view",
      "type": "function"
    },
    {
      "inputs": [],
      "name": "onlyWhiteListed",
      "outputs": [
        {
          "internalType": "bool",
          "name": "",
          "type": "bool"
        }
      ],
      "stateMutability": "view",
      "type": "function"
    },
    {
      "inputs": [],
      "name": "owner",
      "outputs": [
        {
          "internalType": "address",
          "name": "",
          "type": "address"
        }
      ],
      "stateMutability": "view",
      "type": "function"
    },
    {
      "inputs": [
        {
          "internalType": "uint256",
          "name": "tokenId",
          "type": "uint256"
        }
      ],
      "name": "ownerOf",
      "outputs": [
        {
          "internalType": "address",
          "name": "",
          "type": "address"
        }
      ],
      "stateMutability": "view",
      "type": "function"
    },
    {
      "inputs": [
        {
          "internalType": "bool",
          "name": "_state",
          "type": "bool"
        }
      ],
      "name": "pause",
      "outputs": [],
      "stateMutability": "nonpayable",
      "type": "function"
    },
    {
      "inputs": [],
      "name": "paused",
      "outputs": [
        {
          "internalType": "bool",
          "name": "",
          "type": "bool"
        }
      ],
      "stateMutability": "view",
      "type": "function"
    },
    {
      "inputs": [],
      "name": "renounceOwnership",
      "outputs": [],
      "stateMutability": "nonpayable",
      "type": "function"
    },
    {
      "inputs": [],
      "name": "reveal",
      "outputs": [],
      "stateMutability": "nonpayable",
      "type": "function"
    },
    {
      "inputs": [],
      "name": "revealed",
      "outputs": [
        {
          "internalType": "bool",
          "name": "",
          "type": "bool"
        }
      ],
      "stateMutability": "view",
      "type": "function"
    },
    {
      "inputs": [
        {
          "internalType": "address",
          "name": "from",
          "type": "address"
        },
        {
          "internalType": "address",
          "name": "to",
          "type": "address"
        },
        {
          "internalType": "uint256",
          "name": "tokenId",
          "type": "uint256"
        }
      ],
      "name": "safeTransferFrom",
      "outputs": [],
      "stateMutability": "nonpayable",
      "type": "function"
    },
    {
      "inputs": [
        {
          "internalType": "address",
          "name": "from",
          "type": "address"
        },
        {
          "internalType": "address",
          "name": "to",
          "type": "address"
        },
        {
          "internalType": "uint256",
          "name": "tokenId",
          "type": "uint256"
        },
        {
          "internalType": "bytes",
          "name": "_data",
          "type": "bytes"
        }
      ],
      "name": "safeTransferFrom",
      "outputs": [],
      "stateMutability": "nonpayable",
      "type": "function"
    },
    {
      "inputs": [
        {
          "internalType": "address",
          "name": "operator",
          "type": "address"
        },
        {
          "internalType": "bool",
          "name": "approved",
          "type": "bool"
        }
      ],
      "name": "setApprovalForAll",
      "outputs": [],
      "stateMutability": "nonpayable",
      "type": "function"
    },
    {
      "inputs": [
        {
          "internalType": "string",
          "name": "_newBaseExtension",
          "type": "string"
        }
      ],
      "name": "setBaseExtension",
      "outputs": [],
      "stateMutability": "nonpayable",
      "type": "function"
    },
    {
      "inputs": [
        {
          "internalType": "string",
          "name": "_newBaseURI",
          "type": "string"
        }
      ],
      "name": "setBaseURI",
      "outputs": [],
      "stateMutability": "nonpayable",
      "type": "function"
    },
    {
      "inputs": [
        {
          "internalType": "uint256",
          "name": "_newCost",
          "type": "uint256"
        }
      ],
      "name": "setCost",
      "outputs": [],
      "stateMutability": "nonpayable",
      "type": "function"
    },
    {
      "inputs": [
        {
          "internalType": "uint256",
          "name": "_newMaxMintAmount",
          "type": "uint256"
        }
      ],
      "name": "setMaxMintAmount",
      "outputs": [],
      "stateMutability": "nonpayable",
      "type": "function"
    },
    {
      "inputs": [
        {
          "internalType": "uint256",
          "name": "_limit",
          "type": "uint256"
        }
      ],
      "name": "setNftPerAddressLimit",
      "outputs": [],
      "stateMutability": "nonpayable",
      "type": "function"
    },
    {
      "inputs": [
        {
          "internalType": "string",
          "name": "_notRevealedUri",
          "type": "string"
        }
      ],
      "name": "setNotRevealedURI",
      "outputs": [],
      "stateMutability": "nonpayable",
      "type": "function"
    },
    {
      "inputs": [
        {
          "internalType": "bool",
          "name": "_state",
          "type": "bool"
        }
      ],
      "name": "setOnlyWhiteListed",
      "outputs": [],
      "stateMutability": "nonpayable",
      "type": "function"
    },
    {
      "inputs": [
        {
          "internalType": "bytes4",
          "name": "interfaceId",
          "type": "bytes4"
        }
      ],
      "name": "supportsInterface",
      "outputs": [
        {
          "internalType": "bool",
          "name": "",
          "type": "bool"
        }
      ],
      "stateMutability": "view",
      "type": "function"
    },
    {
      "inputs": [],
      "name": "symbol",
      "outputs": [
        {
          "internalType": "string",
          "name": "",
          "type": "string"
        }
      ],
      "stateMutability": "view",
      "type": "function"
    },
    {
      "inputs": [
        {
          "internalType": "uint256",
          "name": "index",
          "type": "uint256"
        }
      ],
      "name": "tokenByIndex",
      "outputs": [
        {
          "internalType": "uint256",
          "name": "",
          "type": "uint256"
        }
      ],
      "stateMutability": "view",
      "type": "function"
    },
    {
      "inputs": [
        {
          "internalType": "address",
          "name": "owner",
          "type": "address"
        },
        {
          "internalType": "uint256",
          "name": "index",
          "type": "uint256"
        }
      ],
      "name": "tokenOfOwnerByIndex",
      "outputs": [
        {
          "internalType": "uint256",
          "name": "",
          "type": "uint256"
        }
      ],
      "stateMutability": "view",
      "type": "function"
    },
    {
      "inputs": [
        {
          "internalType": "uint256",
          "name": "tokenId",
          "type": "uint256"
        }
      ],
      "name": "tokenURI",
      "outputs": [
        {
          "internalType": "string",
          "name": "",
          "type": "string"
        }
      ],
      "stateMutability": "view",
      "type": "function"
    },
    {
      "inputs": [],
      "name": "totalSupply",
      "outputs": [
        {
          "internalType": "uint256",
          "name": "",
          "type": "uint256"
        }
      ],
      "stateMutability": "view",
      "type": "function"
    },
    {
      "inputs": [
        {
          "internalType": "address",
          "name": "from",
          "type": "address"
        },
        {
          "internalType": "address",
          "name": "to",
          "type": "address"
        },
        {
          "internalType": "uint256",
          "name": "tokenId",
          "type": "uint256"
        }
      ],
      "name": "transferFrom",
      "outputs": [],
      "stateMutability": "nonpayable",
      "type": "function"
    },
    {
      "inputs": [
        {
          "internalType": "address",
          "name": "newOwner",
          "type": "address"
        }
      ],
      "name": "transferOwnership",
      "outputs": [],
      "stateMutability": "nonpayable",
      "type": "function"
    },
    {
      "inputs": [
        {
          "internalType": "address",
          "name": "_owner",
          "type": "address"
        }
      ],
      "name": "walletOfOwner",
      "outputs": [
        {
          "internalType": "uint256[]",
          "name": "",
          "type": "uint256[]"
        }
      ],
      "stateMutability": "view",
      "type": "function"
    },
    {
      "inputs": [
        {
          "internalType": "uint256",
          "name": "",
          "type": "uint256"
        }
      ],
      "name": "whiteListedAddress",
      "outputs": [
        {
          "internalType": "address",
          "name": "",
          "type": "address"
        }
      ],
      "stateMutability": "view",
      "type": "function"
    },
    {
      "inputs": [
        {
          "internalType": "address[]",
          "name": "_users",
          "type": "address[]"
        }
      ],
      "name": "whitelistUsers",
      "outputs": [],
      "stateMutability": "nonpayable",
      "type": "function"
    },
    {
      "inputs": [],
      "name": "withdraw",
      "outputs": [],
      "stateMutability": "payable",
      "type": "function"
    }
  ],
  "bytecode": "0x60806040526040518060400160405280600581526020017f2e6a736f6e000000000000000000000000000000000000000000000000000000815250600c908051906020019062000051929190620003c1565b506601c6bf52634000600e55612710600f55600160105560016011556000601260006101000a81548160ff0219169083151502179055506000601260016101000a81548160ff0219169083151502179055506001601260026101000a81548160ff021916908315150217905550348015620000cb57600080fd5b5060405162005811380380620058118339818101604052810190620000f19190620004e3565b838381600090805190602001906200010b929190620003c1565b50806001908051906020019062000124929190620003c1565b505050620001476200013b6200017360201b60201c565b6200017b60201b60201c565b62000158826200024160201b60201c565b6200016981620002ec60201b60201c565b50505050620007a6565b600033905090565b6000600a60009054906101000a900473ffffffffffffffffffffffffffffffffffffffff16905081600a60006101000a81548173ffffffffffffffffffffffffffffffffffffffff021916908373ffffffffffffffffffffffffffffffffffffffff1602179055508173ffffffffffffffffffffffffffffffffffffffff168173ffffffffffffffffffffffffffffffffffffffff167f8be0079c531659141344cd1fd0a4f28419497f9722a3daafe3b4186f6b6457e060405160405180910390a35050565b620002516200017360201b60201c565b73ffffffffffffffffffffffffffffffffffffffff16620002776200039760201b60201c565b73ffffffffffffffffffffffffffffffffffffffff1614620002d0576040517f08c379a0000000000000000000000000000000000000000000000000000000008152600401620002c790620005da565b60405180910390fd5b80600b9080519060200190620002e8929190620003c1565b5050565b620002fc6200017360201b60201c565b73ffffffffffffffffffffffffffffffffffffffff16620003226200039760201b60201c565b73ffffffffffffffffffffffffffffffffffffffff16146200037b576040517f08c379a00000000000000000000000000000000000000000000000000000000081526004016200037290620005da565b60405180910390fd5b80600d908051906020019062000393929190620003c1565b5050565b6000600a60009054906101000a900473ffffffffffffffffffffffffffffffffffffffff16905090565b828054620003cf90620006a2565b90600052602060002090601f016020900481019282620003f357600085556200043f565b82601f106200040e57805160ff19168380011785556200043f565b828001600101855582156200043f579182015b828111156200043e57825182559160200191906001019062000421565b5b5090506200044e919062000452565b5090565b5b808211156200046d57600081600090555060010162000453565b5090565b600062000488620004828462000625565b620005fc565b905082815260208101848484011115620004a157600080fd5b620004ae8482856200066c565b509392505050565b600082601f830112620004c857600080fd5b8151620004da84826020860162000471565b91505092915050565b60008060008060808587031215620004fa57600080fd5b600085015167ffffffffffffffff8111156200051557600080fd5b6200052387828801620004b6565b945050602085015167ffffffffffffffff8111156200054157600080fd5b6200054f87828801620004b6565b935050604085015167ffffffffffffffff8111156200056d57600080fd5b6200057b87828801620004b6565b925050606085015167ffffffffffffffff8111156200059957600080fd5b620005a787828801620004b6565b91505092959194509250565b6000620005c26020836200065b565b9150620005cf826200077d565b602082019050919050565b60006020820190508181036000830152620005f581620005b3565b9050919050565b6000620006086200061b565b9050620006168282620006d8565b919050565b6000604051905090565b600067ffffffffffffffff8211156200064357620006426200073d565b5b6200064e826200076c565b9050602081019050919050565b600082825260208201905092915050565b60005b838110156200068c5780820151818401526020810190506200066f565b838111156200069c576000848401525b50505050565b60006002820490506001821680620006bb57607f821691505b60208210811415620006d257620006d16200070e565b5b50919050565b620006e3826200076c565b810181811067ffffffffffffffff821117156200070557620007046200073d565b5b80604052505050565b7f4e487b7100000000000000000000000000000000000000000000000000000000600052602260045260246000fd5b7f4e487b7100000000000000000000000000000000000000000000000000000000600052604160045260246000fd5b6000601f19601f8301169050919050565b7f4f776e61626c653a2063616c6c6572206973206e6f7420746865206f776e6572600082015250565b61505b80620007b66000396000f3fe6080604052600436106102725760003560e01c80636352211e1161014f578063b88d4fde116100c1578063da3ef23f1161007a578063da3ef23f1461094a578063e51f8fe314610973578063e985e9c5146109b0578063edec5f27146109ed578063f2c4ce1e14610a16578063f2fde38b14610a3f57610272565b8063b88d4fde1461083a578063ba7d2c7614610863578063c66828621461088e578063c87b56dd146108b9578063d0eb26b0146108f6578063d5abeb011461091f57610272565b806395d89b411161011357806395d89b411461075f578063a0712d681461078a578063a22cb465146107a6578063a4759074146107cf578063a475b5dd146107fa578063b03283781461081157610272565b80636352211e146106785780636c0360eb146106b557806370a08231146106e0578063715018a61461071d5780638da5cb5b1461073457610272565b806323b872dd116101e8578063438b6300116101ac578063438b63001461055657806344a0d68a146105935780634f6ccce7146105bc57806351830227146105f957806355f804b3146106245780635c975abb1461064d57610272565b806323b872dd146104805780632f745c59146104a95780633af32abf146104e65780633ccfd60b1461052357806342842e0e1461052d57610272565b8063088a4ed01161023a578063088a4ed014610370578063095ea7b31461039957806313faede6146103c257806318160ddd146103ed57806318cae26914610418578063239c70ae1461045557610272565b806301ffc9a71461027757806302329a29146102b457806306fdde03146102dd578063081812fc14610308578063081c8c4414610345575b600080fd5b34801561028357600080fd5b5061029e60048036038101906102999190613a8e565b610a68565b6040516102ab919061417b565b60405180910390f35b3480156102c057600080fd5b506102db60048036038101906102d69190613a65565b610ae2565b005b3480156102e957600080fd5b506102f2610b7b565b6040516102ff9190614196565b60405180910390f35b34801561031457600080fd5b5061032f600480360381019061032a9190613b21565b610c0d565b60405161033c91906140f2565b60405180910390f35b34801561035157600080fd5b5061035a610c92565b6040516103679190614196565b60405180910390f35b34801561037c57600080fd5b5061039760048036038101906103929190613b21565b610d20565b005b3480156103a557600080fd5b506103c060048036038101906103bb91906139e4565b610da6565b005b3480156103ce57600080fd5b506103d7610ebe565b6040516103e491906144d8565b60405180910390f35b3480156103f957600080fd5b50610402610ec4565b60405161040f91906144d8565b60405180910390f35b34801561042457600080fd5b5061043f600480360381019061043a9190613879565b610ed1565b60405161044c91906144d8565b60405180910390f35b34801561046157600080fd5b5061046a610ee9565b60405161047791906144d8565b60405180910390f35b34801561048c57600080fd5b506104a760048036038101906104a291906138de565b610eef565b005b3480156104b557600080fd5b506104d060048036038101906104cb91906139e4565b610f4f565b6040516104dd91906144d8565b60405180910390f35b3480156104f257600080fd5b5061050d60048036038101906105089190613879565b610ff4565b60405161051a919061417b565b60405180910390f35b61052b6110c9565b005b34801561053957600080fd5b50610554600480360381019061054f91906138de565b6111c5565b005b34801561056257600080fd5b5061057d60048036038101906105789190613879565b6111e5565b60405161058a9190614159565b60405180910390f35b34801561059f57600080fd5b506105ba60048036038101906105b59190613b21565b6112df565b005b3480156105c857600080fd5b506105e360048036038101906105de9190613b21565b611365565b6040516105f091906144d8565b60405180910390f35b34801561060557600080fd5b5061060e6113fc565b60405161061b919061417b565b60405180910390f35b34801561063057600080fd5b5061064b60048036038101906106469190613ae0565b61140f565b005b34801561065957600080fd5b506106626114a5565b60405161066f919061417b565b60405180910390f35b34801561068457600080fd5b5061069f600480360381019061069a9190613b21565b6114b8565b6040516106ac91906140f2565b60405180910390f35b3480156106c157600080fd5b506106ca61156a565b6040516106d79190614196565b60405180910390f35b3480156106ec57600080fd5b5061070760048036038101906107029190613879565b6115f8565b60405161071491906144d8565b60405180910390f35b34801561072957600080fd5b506107326116b0565b005b34801561074057600080fd5b50610749611738565b60405161075691906140f2565b60405180910390f35b34801561076b57600080fd5b50610774611762565b6040516107819190614196565b60405180910390f35b6107a4600480360381019061079f9190613b21565b6117f4565b005b3480156107b257600080fd5b506107cd60048036038101906107c891906139a8565b611b3d565b005b3480156107db57600080fd5b506107e4611b53565b6040516107f1919061417b565b60405180910390f35b34801561080657600080fd5b5061080f611b66565b005b34801561081d57600080fd5b5061083860048036038101906108339190613a65565b611bff565b005b34801561084657600080fd5b50610861600480360381019061085c919061392d565b611c98565b005b34801561086f57600080fd5b50610878611cfa565b60405161088591906144d8565b60405180910390f35b34801561089a57600080fd5b506108a3611d00565b6040516108b09190614196565b60405180910390f35b3480156108c557600080fd5b506108e060048036038101906108db9190613b21565b611d8e565b6040516108ed9190614196565b60405180910390f35b34801561090257600080fd5b5061091d60048036038101906109189190613b21565b611ee7565b005b34801561092b57600080fd5b50610934611f6d565b60405161094191906144d8565b60405180910390f35b34801561095657600080fd5b50610971600480360381019061096c9190613ae0565b611f73565b005b34801561097f57600080fd5b5061099a60048036038101906109959190613b21565b612009565b6040516109a791906140f2565b60405180910390f35b3480156109bc57600080fd5b506109d760048036038101906109d291906138a2565b612048565b6040516109e4919061417b565b60405180910390f35b3480156109f957600080fd5b50610a146004803603810190610a0f9190613a20565b6120dc565b005b348015610a2257600080fd5b50610a3d6004803603810190610a389190613ae0565b61217c565b005b348015610a4b57600080fd5b50610a666004803603810190610a619190613879565b612212565b005b60007f780e9d63000000000000000000000000000000000000000000000000000000007bffffffffffffffffffffffffffffffffffffffffffffffffffffffff1916827bffffffffffffffffffffffffffffffffffffffffffffffffffffffff19161480610adb5750610ada8261230a565b5b9050919050565b610aea6123ec565b73ffffffffffffffffffffffffffffffffffffffff16610b08611738565b73ffffffffffffffffffffffffffffffffffffffff1614610b5e576040517f08c379a0000000000000000000000000000000000000000000000000000000008152600401610b55906143d8565b60405180910390fd5b80601260006101000a81548160ff02191690831515021790555050565b606060008054610b8a906147e1565b80601f0160208091040260200160405190810160405280929190818152602001828054610bb6906147e1565b8015610c035780601f10610bd857610100808354040283529160200191610c03565b820191906000526020600020905b815481529060010190602001808311610be657829003601f168201915b5050505050905090565b6000610c18826123f4565b610c57576040517f08c379a0000000000000000000000000000000000000000000000000000000008152600401610c4e906143b8565b60405180910390fd5b6004600083815260200190815260200160002060009054906101000a900473ffffffffffffffffffffffffffffffffffffffff169050919050565b600d8054610c9f906147e1565b80601f0160208091040260200160405190810160405280929190818152602001828054610ccb906147e1565b8015610d185780601f10610ced57610100808354040283529160200191610d18565b820191906000526020600020905b815481529060010190602001808311610cfb57829003601f168201915b505050505081565b610d286123ec565b73ffffffffffffffffffffffffffffffffffffffff16610d46611738565b73ffffffffffffffffffffffffffffffffffffffff1614610d9c576040517f08c379a0000000000000000000000000000000000000000000000000000000008152600401610d93906143d8565b60405180910390fd5b8060108190555050565b6000610db1826114b8565b90508073ffffffffffffffffffffffffffffffffffffffff168373ffffffffffffffffffffffffffffffffffffffff161415610e22576040517f08c379a0000000000000000000000000000000000000000000000000000000008152600401610e1990614458565b60405180910390fd5b8073ffffffffffffffffffffffffffffffffffffffff16610e416123ec565b73ffffffffffffffffffffffffffffffffffffffff161480610e705750610e6f81610e6a6123ec565b612048565b5b610eaf576040517f08c379a0000000000000000000000000000000000000000000000000000000008152600401610ea6906142d8565b60405180910390fd5b610eb98383612460565b505050565b600e5481565b6000600880549050905090565b60146020528060005260406000206000915090505481565b60105481565b610f00610efa6123ec565b82612519565b610f3f576040517f08c379a0000000000000000000000000000000000000000000000000000000008152600401610f3690614478565b60405180910390fd5b610f4a8383836125f7565b505050565b6000610f5a836115f8565b8210610f9b576040517f08c379a0000000000000000000000000000000000000000000000000000000008152600401610f92906141b8565b60405180910390fd5b600660008473ffffffffffffffffffffffffffffffffffffffff1673ffffffffffffffffffffffffffffffffffffffff168152602001908152602001600020600083815260200190815260200160002054905092915050565b600080600090505b6013805490508110156110be578273ffffffffffffffffffffffffffffffffffffffff166013828154811061105a577f4e487b7100000000000000000000000000000000000000000000000000000000600052603260045260246000fd5b9060005260206000200160009054906101000a900473ffffffffffffffffffffffffffffffffffffffff1673ffffffffffffffffffffffffffffffffffffffff1614156110ab5760019150506110c4565b80806110b690614844565b915050610ffc565b50600090505b919050565b6110d16123ec565b73ffffffffffffffffffffffffffffffffffffffff166110ef611738565b73ffffffffffffffffffffffffffffffffffffffff1614611145576040517f08c379a000000000000000000000000000000000000000000000000000000000815260040161113c906143d8565b60405180910390fd5b600061114f611738565b73ffffffffffffffffffffffffffffffffffffffff1647604051611172906140dd565b60006040518083038185875af1925050503d80600081146111af576040519150601f19603f3d011682016040523d82523d6000602084013e6111b4565b606091505b50509050806111c257600080fd5b50565b6111e083838360405180602001604052806000815250611c98565b505050565b606060006111f2836115f8565b905060008167ffffffffffffffff811115611236577f4e487b7100000000000000000000000000000000000000000000000000000000600052604160045260246000fd5b6040519080825280602002602001820160405280156112645781602001602082028036833780820191505090505b50905060005b828110156112d45761127c8582610f4f565b8282815181106112b5577f4e487b7100000000000000000000000000000000000000000000000000000000600052603260045260246000fd5b60200260200101818152505080806112cc90614844565b91505061126a565b508092505050919050565b6112e76123ec565b73ffffffffffffffffffffffffffffffffffffffff16611305611738565b73ffffffffffffffffffffffffffffffffffffffff161461135b576040517f08c379a0000000000000000000000000000000000000000000000000000000008152600401611352906143d8565b60405180910390fd5b80600e8190555050565b600061136f610ec4565b82106113b0576040517f08c379a00000000000000000000000000000000000000000000000000000000081526004016113a790614498565b60405180910390fd5b600882815481106113ea577f4e487b7100000000000000000000000000000000000000000000000000000000600052603260045260246000fd5b90600052602060002001549050919050565b601260019054906101000a900460ff1681565b6114176123ec565b73ffffffffffffffffffffffffffffffffffffffff16611435611738565b73ffffffffffffffffffffffffffffffffffffffff161461148b576040517f08c379a0000000000000000000000000000000000000000000000000000000008152600401611482906143d8565b60405180910390fd5b80600b90805190602001906114a1929190613592565b5050565b601260009054906101000a900460ff1681565b6000806002600084815260200190815260200160002060009054906101000a900473ffffffffffffffffffffffffffffffffffffffff169050600073ffffffffffffffffffffffffffffffffffffffff168173ffffffffffffffffffffffffffffffffffffffff161415611561576040517f08c379a000000000000000000000000000000000000000000000000000000000815260040161155890614338565b60405180910390fd5b80915050919050565b600b8054611577906147e1565b80601f01602080910402602001604051908101604052809291908181526020018280546115a3906147e1565b80156115f05780601f106115c5576101008083540402835291602001916115f0565b820191906000526020600020905b8154815290600101906020018083116115d357829003601f168201915b505050505081565b60008073ffffffffffffffffffffffffffffffffffffffff168273ffffffffffffffffffffffffffffffffffffffff161415611669576040517f08c379a000000000000000000000000000000000000000000000000000000000815260040161166090614318565b60405180910390fd5b600360008373ffffffffffffffffffffffffffffffffffffffff1673ffffffffffffffffffffffffffffffffffffffff168152602001908152602001600020549050919050565b6116b86123ec565b73ffffffffffffffffffffffffffffffffffffffff166116d6611738565b73ffffffffffffffffffffffffffffffffffffffff161461172c576040517f08c379a0000000000000000000000000000000000000000000000000000000008152600401611723906143d8565b60405180910390fd5b6117366000612853565b565b6000600a60009054906101000a900473ffffffffffffffffffffffffffffffffffffffff16905090565b606060018054611771906147e1565b80601f016020809104026020016040519081016040528092919081815260200182805461179d906147e1565b80156117ea5780601f106117bf576101008083540402835291602001916117ea565b820191906000526020600020905b8154815290600101906020018083116117cd57829003601f168201915b5050505050905090565b601260009054906101000a900460ff1615611844576040517f08c379a000000000000000000000000000000000000000000000000000000000815260040161183b906144b8565b60405180910390fd5b600061184e610ec4565b905060008211611893576040517f08c379a000000000000000000000000000000000000000000000000000000000815260040161188a90614398565b60405180910390fd5b6010548211156118d8576040517f08c379a00000000000000000000000000000000000000000000000000000000081526004016118cf906142f8565b60405180910390fd5b600f5482826118e79190614616565b1115611928576040517f08c379a000000000000000000000000000000000000000000000000000000000815260040161191f90614358565b60405180910390fd5b611930611738565b73ffffffffffffffffffffffffffffffffffffffff163373ffffffffffffffffffffffffffffffffffffffff1614611aad5760011515601260029054906101000a900460ff1615151415611a5c5761198733610ff4565b6119c6576040517f08c379a00000000000000000000000000000000000000000000000000000000081526004016119bd906142b8565b60405180910390fd5b6000601460003373ffffffffffffffffffffffffffffffffffffffff1673ffffffffffffffffffffffffffffffffffffffff1681526020019081526020016000205490506011548382611a199190614616565b1115611a5a576040517f08c379a0000000000000000000000000000000000000000000000000000000008152600401611a5190614438565b60405180910390fd5b505b81600e54611a6a919061469d565b341015611aac576040517f08c379a0000000000000000000000000000000000000000000000000000000008152600401611aa390614238565b60405180910390fd5b5b6000600190505b828111611b3857601460003373ffffffffffffffffffffffffffffffffffffffff1673ffffffffffffffffffffffffffffffffffffffff1681526020019081526020016000206000815480929190611b0b90614844565b9190505550611b25338284611b209190614616565b612919565b8080611b3090614844565b915050611ab4565b505050565b611b4f611b486123ec565b8383612937565b5050565b601260029054906101000a900460ff1681565b611b6e6123ec565b73ffffffffffffffffffffffffffffffffffffffff16611b8c611738565b73ffffffffffffffffffffffffffffffffffffffff1614611be2576040517f08c379a0000000000000000000000000000000000000000000000000000000008152600401611bd9906143d8565b60405180910390fd5b6001601260016101000a81548160ff021916908315150217905550565b611c076123ec565b73ffffffffffffffffffffffffffffffffffffffff16611c25611738565b73ffffffffffffffffffffffffffffffffffffffff1614611c7b576040517f08c379a0000000000000000000000000000000000000000000000000000000008152600401611c72906143d8565b60405180910390fd5b80601260026101000a81548160ff02191690831515021790555050565b611ca9611ca36123ec565b83612519565b611ce8576040517f08c379a0000000000000000000000000000000000000000000000000000000008152600401611cdf90614478565b60405180910390fd5b611cf484848484612aa4565b50505050565b60115481565b600c8054611d0d906147e1565b80601f0160208091040260200160405190810160405280929190818152602001828054611d39906147e1565b8015611d865780601f10611d5b57610100808354040283529160200191611d86565b820191906000526020600020905b815481529060010190602001808311611d6957829003601f168201915b505050505081565b6060611d99826123f4565b611dd8576040517f08c379a0000000000000000000000000000000000000000000000000000000008152600401611dcf90614418565b60405180910390fd5b60001515601260019054906101000a900460ff1615151415611e8657600d8054611e01906147e1565b80601f0160208091040260200160405190810160405280929190818152602001828054611e2d906147e1565b8015611e7a5780601f10611e4f57610100808354040283529160200191611e7a565b820191906000526020600020905b815481529060010190602001808311611e5d57829003601f168201915b50505050509050611ee2565b6000611e90612b00565b90506000815111611eb05760405180602001604052806000815250611ede565b80611eba84612b17565b600c604051602001611ece939291906140ac565b6040516020818303038152906040525b9150505b919050565b611eef6123ec565b73ffffffffffffffffffffffffffffffffffffffff16611f0d611738565b73ffffffffffffffffffffffffffffffffffffffff1614611f63576040517f08c379a0000000000000000000000000000000000000000000000000000000008152600401611f5a906143d8565b60405180910390fd5b8060118190555050565b600f5481565b611f7b6123ec565b73ffffffffffffffffffffffffffffffffffffffff16611f99611738565b73ffffffffffffffffffffffffffffffffffffffff1614611fef576040517f08c379a0000000000000000000000000000000000000000000000000000000008152600401611fe6906143d8565b60405180910390fd5b80600c9080519060200190612005929190613592565b5050565b6013818154811061201957600080fd5b906000526020600020016000915054906101000a900473ffffffffffffffffffffffffffffffffffffffff1681565b6000600560008473ffffffffffffffffffffffffffffffffffffffff1673ffffffffffffffffffffffffffffffffffffffff16815260200190815260200160002060008373ffffffffffffffffffffffffffffffffffffffff1673ffffffffffffffffffffffffffffffffffffffff16815260200190815260200160002060009054906101000a900460ff16905092915050565b6120e46123ec565b73ffffffffffffffffffffffffffffffffffffffff16612102611738565b73ffffffffffffffffffffffffffffffffffffffff1614612158576040517f08c379a000000000000000000000000000000000000000000000000000000000815260040161214f906143d8565b60405180910390fd5b601360006121669190613618565b818160139190612177929190613639565b505050565b6121846123ec565b73ffffffffffffffffffffffffffffffffffffffff166121a2611738565b73ffffffffffffffffffffffffffffffffffffffff16146121f8576040517f08c379a00000000000000000000000000000000000000000000000000000000081526004016121ef906143d8565b60405180910390fd5b80600d908051906020019061220e929190613592565b5050565b61221a6123ec565b73ffffffffffffffffffffffffffffffffffffffff16612238611738565b73ffffffffffffffffffffffffffffffffffffffff161461228e576040517f08c379a0000000000000000000000000000000000000000000000000000000008152600401612285906143d8565b60405180910390fd5b600073ffffffffffffffffffffffffffffffffffffffff168173ffffffffffffffffffffffffffffffffffffffff1614156122fe576040517f08c379a00000000000000000000000000000000000000000000000000000000081526004016122f5906141f8565b60405180910390fd5b61230781612853565b50565b60007f80ac58cd000000000000000000000000000000000000000000000000000000007bffffffffffffffffffffffffffffffffffffffffffffffffffffffff1916827bffffffffffffffffffffffffffffffffffffffffffffffffffffffff191614806123d557507f5b5e139f000000000000000000000000000000000000000000000000000000007bffffffffffffffffffffffffffffffffffffffffffffffffffffffff1916827bffffffffffffffffffffffffffffffffffffffffffffffffffffffff1916145b806123e557506123e482612cc4565b5b9050919050565b600033905090565b60008073ffffffffffffffffffffffffffffffffffffffff166002600084815260200190815260200160002060009054906101000a900473ffffffffffffffffffffffffffffffffffffffff1673ffffffffffffffffffffffffffffffffffffffff1614159050919050565b816004600083815260200190815260200160002060006101000a81548173ffffffffffffffffffffffffffffffffffffffff021916908373ffffffffffffffffffffffffffffffffffffffff160217905550808273ffffffffffffffffffffffffffffffffffffffff166124d3836114b8565b73ffffffffffffffffffffffffffffffffffffffff167f8c5be1e5ebec7d5bd14f71427d1e84f3dd0314c0f7b2291e5b200ac8c7c3b92560405160405180910390a45050565b6000612524826123f4565b612563576040517f08c379a000000000000000000000000000000000000000000000000000000000815260040161255a90614298565b60405180910390fd5b600061256e836114b8565b90508073ffffffffffffffffffffffffffffffffffffffff168473ffffffffffffffffffffffffffffffffffffffff1614806125dd57508373ffffffffffffffffffffffffffffffffffffffff166125c584610c0d565b73ffffffffffffffffffffffffffffffffffffffff16145b806125ee57506125ed8185612048565b5b91505092915050565b8273ffffffffffffffffffffffffffffffffffffffff16612617826114b8565b73ffffffffffffffffffffffffffffffffffffffff161461266d576040517f08c379a0000000000000000000000000000000000000000000000000000000008152600401612664906143f8565b60405180910390fd5b600073ffffffffffffffffffffffffffffffffffffffff168273ffffffffffffffffffffffffffffffffffffffff1614156126dd576040517f08c379a00000000000000000000000000000000000000000000000000000000081526004016126d490614258565b60405180910390fd5b6126e8838383612d2e565b6126f3600082612460565b6001600360008573ffffffffffffffffffffffffffffffffffffffff1673ffffffffffffffffffffffffffffffffffffffff168152602001908152602001600020600082825461274391906146f7565b925050819055506001600360008473ffffffffffffffffffffffffffffffffffffffff1673ffffffffffffffffffffffffffffffffffffffff168152602001908152602001600020600082825461279a9190614616565b92505081905550816002600083815260200190815260200160002060006101000a81548173ffffffffffffffffffffffffffffffffffffffff021916908373ffffffffffffffffffffffffffffffffffffffff160217905550808273ffffffffffffffffffffffffffffffffffffffff168473ffffffffffffffffffffffffffffffffffffffff167fddf252ad1be2c89b69c2b068fc378daa952ba7f163c4a11628f55a4df523b3ef60405160405180910390a4505050565b6000600a60009054906101000a900473ffffffffffffffffffffffffffffffffffffffff16905081600a60006101000a81548173ffffffffffffffffffffffffffffffffffffffff021916908373ffffffffffffffffffffffffffffffffffffffff1602179055508173ffffffffffffffffffffffffffffffffffffffff168173ffffffffffffffffffffffffffffffffffffffff167f8be0079c531659141344cd1fd0a4f28419497f9722a3daafe3b4186f6b6457e060405160405180910390a35050565b612933828260405180602001604052806000815250612e42565b5050565b8173ffffffffffffffffffffffffffffffffffffffff168373ffffffffffffffffffffffffffffffffffffffff1614156129a6576040517f08c379a000000000000000000000000000000000000000000000000000000000815260040161299d90614278565b60405180910390fd5b80600560008573ffffffffffffffffffffffffffffffffffffffff1673ffffffffffffffffffffffffffffffffffffffff16815260200190815260200160002060008473ffffffffffffffffffffffffffffffffffffffff1673ffffffffffffffffffffffffffffffffffffffff16815260200190815260200160002060006101000a81548160ff0219169083151502179055508173ffffffffffffffffffffffffffffffffffffffff168373ffffffffffffffffffffffffffffffffffffffff167f17307eab39ab6107e8899845ad3d59bd9653f200f220920489ca2b5937696c3183604051612a97919061417b565b60405180910390a3505050565b612aaf8484846125f7565b612abb84848484612e9d565b612afa576040517f08c379a0000000000000000000000000000000000000000000000000000000008152600401612af1906141d8565b60405180910390fd5b50505050565b606060405180602001604052806000815250905090565b60606000821415612b5f576040518060400160405280600181526020017f30000000000000000000000000000000000000000000000000000000000000008152509050612cbf565b600082905060005b60008214612b91578080612b7a90614844565b915050600a82612b8a919061466c565b9150612b67565b60008167ffffffffffffffff811115612bd3577f4e487b7100000000000000000000000000000000000000000000000000000000600052604160045260246000fd5b6040519080825280601f01601f191660200182016040528015612c055781602001600182028036833780820191505090505b5090505b60008514612cb857600182612c1e91906146f7565b9150600a85612c2d919061488d565b6030612c399190614616565b60f81b818381518110612c75577f4e487b7100000000000000000000000000000000000000000000000000000000600052603260045260246000fd5b60200101907effffffffffffffffffffffffffffffffffffffffffffffffffffffffffffff1916908160001a905350600a85612cb1919061466c565b9450612c09565b8093505050505b919050565b60007f01ffc9a7000000000000000000000000000000000000000000000000000000007bffffffffffffffffffffffffffffffffffffffffffffffffffffffff1916827bffffffffffffffffffffffffffffffffffffffffffffffffffffffff1916149050919050565b612d39838383613034565b600073ffffffffffffffffffffffffffffffffffffffff168373ffffffffffffffffffffffffffffffffffffffff161415612d7c57612d7781613039565b612dbb565b8173ffffffffffffffffffffffffffffffffffffffff168373ffffffffffffffffffffffffffffffffffffffff1614612dba57612db98382613082565b5b5b600073ffffffffffffffffffffffffffffffffffffffff168273ffffffffffffffffffffffffffffffffffffffff161415612dfe57612df9816131ef565b612e3d565b8273ffffffffffffffffffffffffffffffffffffffff168273ffffffffffffffffffffffffffffffffffffffff1614612e3c57612e3b8282613332565b5b5b505050565b612e4c83836133b1565b612e596000848484612e9d565b612e98576040517f08c379a0000000000000000000000000000000000000000000000000000000008152600401612e8f906141d8565b60405180910390fd5b505050565b6000612ebe8473ffffffffffffffffffffffffffffffffffffffff1661357f565b15613027578373ffffffffffffffffffffffffffffffffffffffff1663150b7a02612ee76123ec565b8786866040518563ffffffff1660e01b8152600401612f09949392919061410d565b602060405180830381600087803b158015612f2357600080fd5b505af1925050508015612f5457506040513d601f19601f82011682018060405250810190612f519190613ab7565b60015b612fd7573d8060008114612f84576040519150601f19603f3d011682016040523d82523d6000602084013e612f89565b606091505b50600081511415612fcf576040517f08c379a0000000000000000000000000000000000000000000000000000000008152600401612fc6906141d8565b60405180910390fd5b805181602001fd5b63150b7a0260e01b7bffffffffffffffffffffffffffffffffffffffffffffffffffffffff1916817bffffffffffffffffffffffffffffffffffffffffffffffffffffffff19161491505061302c565b600190505b949350505050565b505050565b6008805490506009600083815260200190815260200160002081905550600881908060018154018082558091505060019003906000526020600020016000909190919091505550565b6000600161308f846115f8565b61309991906146f7565b905060006007600084815260200190815260200160002054905081811461317e576000600660008673ffffffffffffffffffffffffffffffffffffffff1673ffffffffffffffffffffffffffffffffffffffff168152602001908152602001600020600084815260200190815260200160002054905080600660008773ffffffffffffffffffffffffffffffffffffffff1673ffffffffffffffffffffffffffffffffffffffff168152602001908152602001600020600084815260200190815260200160002081905550816007600083815260200190815260200160002081905550505b6007600084815260200190815260200160002060009055600660008573ffffffffffffffffffffffffffffffffffffffff1673ffffffffffffffffffffffffffffffffffffffff16815260200190815260200160002060008381526020019081526020016000206000905550505050565b6000600160088054905061320391906146f7565b9050600060096000848152602001908152602001600020549050600060088381548110613259577f4e487b7100000000000000000000000000000000000000000000000000000000600052603260045260246000fd5b9060005260206000200154905080600883815481106132a1577f4e487b7100000000000000000000000000000000000000000000000000000000600052603260045260246000fd5b906000526020600020018190555081600960008381526020019081526020016000208190555060096000858152602001908152602001600020600090556008805480613316577f4e487b7100000000000000000000000000000000000000000000000000000000600052603160045260246000fd5b6001900381819060005260206000200160009055905550505050565b600061333d836115f8565b905081600660008573ffffffffffffffffffffffffffffffffffffffff1673ffffffffffffffffffffffffffffffffffffffff168152602001908152602001600020600083815260200190815260200160002081905550806007600084815260200190815260200160002081905550505050565b600073ffffffffffffffffffffffffffffffffffffffff168273ffffffffffffffffffffffffffffffffffffffff161415613421576040517f08c379a000000000000000000000000000000000000000000000000000000000815260040161341890614378565b60405180910390fd5b61342a816123f4565b1561346a576040517f08c379a000000000000000000000000000000000000000000000000000000000815260040161346190614218565b60405180910390fd5b61347660008383612d2e565b6001600360008473ffffffffffffffffffffffffffffffffffffffff1673ffffffffffffffffffffffffffffffffffffffff16815260200190815260200160002060008282546134c69190614616565b92505081905550816002600083815260200190815260200160002060006101000a81548173ffffffffffffffffffffffffffffffffffffffff021916908373ffffffffffffffffffffffffffffffffffffffff160217905550808273ffffffffffffffffffffffffffffffffffffffff16600073ffffffffffffffffffffffffffffffffffffffff167fddf252ad1be2c89b69c2b068fc378daa952ba7f163c4a11628f55a4df523b3ef60405160405180910390a45050565b600080823b905060008111915050919050565b82805461359e906147e1565b90600052602060002090601f0160209004810192826135c05760008555613607565b82601f106135d957805160ff1916838001178555613607565b82800160010185558215613607579182015b828111156136065782518255916020019190600101906135eb565b5b50905061361491906136d9565b5090565b508054600082559060005260206000209081019061363691906136d9565b50565b8280548282559060005260206000209081019282156136c8579160200282015b828111156136c757823573ffffffffffffffffffffffffffffffffffffffff168260006101000a81548173ffffffffffffffffffffffffffffffffffffffff021916908373ffffffffffffffffffffffffffffffffffffffff16021790555091602001919060010190613659565b5b5090506136d591906136d9565b5090565b5b808211156136f25760008160009055506001016136da565b5090565b600061370961370484614518565b6144f3565b90508281526020810184848401111561372157600080fd5b61372c84828561479f565b509392505050565b600061374761374284614549565b6144f3565b90508281526020810184848401111561375f57600080fd5b61376a84828561479f565b509392505050565b60008135905061378181614fc9565b92915050565b60008083601f84011261379957600080fd5b8235905067ffffffffffffffff8111156137b257600080fd5b6020830191508360208202830111156137ca57600080fd5b9250929050565b6000813590506137e081614fe0565b92915050565b6000813590506137f581614ff7565b92915050565b60008151905061380a81614ff7565b92915050565b600082601f83011261382157600080fd5b81356138318482602086016136f6565b91505092915050565b600082601f83011261384b57600080fd5b813561385b848260208601613734565b91505092915050565b6000813590506138738161500e565b92915050565b60006020828403121561388b57600080fd5b600061389984828501613772565b91505092915050565b600080604083850312156138b557600080fd5b60006138c385828601613772565b92505060206138d485828601613772565b9150509250929050565b6000806000606084860312156138f357600080fd5b600061390186828701613772565b935050602061391286828701613772565b925050604061392386828701613864565b9150509250925092565b6000806000806080858703121561394357600080fd5b600061395187828801613772565b945050602061396287828801613772565b935050604061397387828801613864565b925050606085013567ffffffffffffffff81111561399057600080fd5b61399c87828801613810565b91505092959194509250565b600080604083850312156139bb57600080fd5b60006139c985828601613772565b92505060206139da858286016137d1565b9150509250929050565b600080604083850312156139f757600080fd5b6000613a0585828601613772565b9250506020613a1685828601613864565b9150509250929050565b60008060208385031215613a3357600080fd5b600083013567ffffffffffffffff811115613a4d57600080fd5b613a5985828601613787565b92509250509250929050565b600060208284031215613a7757600080fd5b6000613a85848285016137d1565b91505092915050565b600060208284031215613aa057600080fd5b6000613aae848285016137e6565b91505092915050565b600060208284031215613ac957600080fd5b6000613ad7848285016137fb565b91505092915050565b600060208284031215613af257600080fd5b600082013567ffffffffffffffff811115613b0c57600080fd5b613b188482850161383a565b91505092915050565b600060208284031215613b3357600080fd5b6000613b4184828501613864565b91505092915050565b6000613b56838361408e565b60208301905092915050565b613b6b8161472b565b82525050565b6000613b7c8261459f565b613b8681856145cd565b9350613b918361457a565b8060005b83811015613bc2578151613ba98882613b4a565b9750613bb4836145c0565b925050600181019050613b95565b5085935050505092915050565b613bd88161473d565b82525050565b6000613be9826145aa565b613bf381856145de565b9350613c038185602086016147ae565b613c0c8161497a565b840191505092915050565b6000613c22826145b5565b613c2c81856145fa565b9350613c3c8185602086016147ae565b613c458161497a565b840191505092915050565b6000613c5b826145b5565b613c65818561460b565b9350613c758185602086016147ae565b80840191505092915050565b60008154613c8e816147e1565b613c98818661460b565b94506001821660008114613cb35760018114613cc457613cf7565b60ff19831686528186019350613cf7565b613ccd8561458a565b60005b83811015613cef57815481890152600182019150602081019050613cd0565b838801955050505b50505092915050565b6000613d0d602b836145fa565b9150613d188261498b565b604082019050919050565b6000613d306032836145fa565b9150613d3b826149da565b604082019050919050565b6000613d536026836145fa565b9150613d5e82614a29565b604082019050919050565b6000613d76601c836145fa565b9150613d8182614a78565b602082019050919050565b6000613d996012836145fa565b9150613da482614aa1565b602082019050919050565b6000613dbc6024836145fa565b9150613dc782614aca565b604082019050919050565b6000613ddf6019836145fa565b9150613dea82614b19565b602082019050919050565b6000613e02602c836145fa565b9150613e0d82614b42565b604082019050919050565b6000613e256026836145fa565b9150613e3082614b91565b604082019050919050565b6000613e486038836145fa565b9150613e5382614be0565b604082019050919050565b6000613e6b6018836145fa565b9150613e7682614c2f565b602082019050919050565b6000613e8e602a836145fa565b9150613e9982614c58565b604082019050919050565b6000613eb16029836145fa565b9150613ebc82614ca7565b604082019050919050565b6000613ed46016836145fa565b9150613edf82614cf6565b602082019050919050565b6000613ef76020836145fa565b9150613f0282614d1f565b602082019050919050565b6000613f1a601a836145fa565b9150613f2582614d48565b602082019050919050565b6000613f3d602c836145fa565b9150613f4882614d71565b604082019050919050565b6000613f606020836145fa565b9150613f6b82614dc0565b602082019050919050565b6000613f836029836145fa565b9150613f8e82614de9565b604082019050919050565b6000613fa6602f836145fa565b9150613fb182614e38565b604082019050919050565b6000613fc9601c836145fa565b9150613fd482614e87565b602082019050919050565b6000613fec6021836145fa565b9150613ff782614eb0565b604082019050919050565b600061400f6000836145ef565b915061401a82614eff565b600082019050919050565b60006140326031836145fa565b915061403d82614f02565b604082019050919050565b6000614055602c836145fa565b915061406082614f51565b604082019050919050565b60006140786017836145fa565b915061408382614fa0565b602082019050919050565b61409781614795565b82525050565b6140a681614795565b82525050565b60006140b88286613c50565b91506140c48285613c50565b91506140d08284613c81565b9150819050949350505050565b60006140e882614002565b9150819050919050565b60006020820190506141076000830184613b62565b92915050565b60006080820190506141226000830187613b62565b61412f6020830186613b62565b61413c604083018561409d565b818103606083015261414e8184613bde565b905095945050505050565b600060208201905081810360008301526141738184613b71565b905092915050565b60006020820190506141906000830184613bcf565b92915050565b600060208201905081810360008301526141b08184613c17565b905092915050565b600060208201905081810360008301526141d181613d00565b9050919050565b600060208201905081810360008301526141f181613d23565b9050919050565b6000602082019050818103600083015261421181613d46565b9050919050565b6000602082019050818103600083015261423181613d69565b9050919050565b6000602082019050818103600083015261425181613d8c565b9050919050565b6000602082019050818103600083015261427181613daf565b9050919050565b6000602082019050818103600083015261429181613dd2565b9050919050565b600060208201905081810360008301526142b181613df5565b9050919050565b600060208201905081810360008301526142d181613e18565b9050919050565b600060208201905081810360008301526142f181613e3b565b9050919050565b6000602082019050818103600083015261431181613e5e565b9050919050565b6000602082019050818103600083015261433181613e81565b9050919050565b6000602082019050818103600083015261435181613ea4565b9050919050565b6000602082019050818103600083015261437181613ec7565b9050919050565b6000602082019050818103600083015261439181613eea565b9050919050565b600060208201905081810360008301526143b181613f0d565b9050919050565b600060208201905081810360008301526143d181613f30565b9050919050565b600060208201905081810360008301526143f181613f53565b9050919050565b6000602082019050818103600083015261441181613f76565b9050919050565b6000602082019050818103600083015261443181613f99565b9050919050565b6000602082019050818103600083015261445181613fbc565b9050919050565b6000602082019050818103600083015261447181613fdf565b9050919050565b6000602082019050818103600083015261449181614025565b9050919050565b600060208201905081810360008301526144b181614048565b9050919050565b600060208201905081810360008301526144d18161406b565b9050919050565b60006020820190506144ed600083018461409d565b92915050565b60006144fd61450e565b90506145098282614813565b919050565b6000604051905090565b600067ffffffffffffffff8211156145335761453261494b565b5b61453c8261497a565b9050602081019050919050565b600067ffffffffffffffff8211156145645761456361494b565b5b61456d8261497a565b9050602081019050919050565b6000819050602082019050919050565b60008190508160005260206000209050919050565b600081519050919050565b600081519050919050565b600081519050919050565b6000602082019050919050565b600082825260208201905092915050565b600082825260208201905092915050565b600081905092915050565b600082825260208201905092915050565b600081905092915050565b600061462182614795565b915061462c83614795565b9250827fffffffffffffffffffffffffffffffffffffffffffffffffffffffffffffffff03821115614661576146606148be565b5b828201905092915050565b600061467782614795565b915061468283614795565b925082614692576146916148ed565b5b828204905092915050565b60006146a882614795565b91506146b383614795565b9250817fffffffffffffffffffffffffffffffffffffffffffffffffffffffffffffffff04831182151516156146ec576146eb6148be565b5b828202905092915050565b600061470282614795565b915061470d83614795565b9250828210156147205761471f6148be565b5b828203905092915050565b600061473682614775565b9050919050565b60008115159050919050565b60007fffffffff0000000000000000000000000000000000000000000000000000000082169050919050565b600073ffffffffffffffffffffffffffffffffffffffff82169050919050565b6000819050919050565b82818337600083830152505050565b60005b838110156147cc5780820151818401526020810190506147b1565b838111156147db576000848401525b50505050565b600060028204905060018216806147f957607f821691505b6020821081141561480d5761480c61491c565b5b50919050565b61481c8261497a565b810181811067ffffffffffffffff8211171561483b5761483a61494b565b5b80604052505050565b600061484f82614795565b91507fffffffffffffffffffffffffffffffffffffffffffffffffffffffffffffffff821415614882576148816148be565b5b600182019050919050565b600061489882614795565b91506148a383614795565b9250826148b3576148b26148ed565b5b828206905092915050565b7f4e487b7100000000000000000000000000000000000000000000000000000000600052601160045260246000fd5b7f4e487b7100000000000000000000000000000000000000000000000000000000600052601260045260246000fd5b7f4e487b7100000000000000000000000000000000000000000000000000000000600052602260045260246000fd5b7f4e487b7100000000000000000000000000000000000000000000000000000000600052604160045260246000fd5b6000601f19601f8301169050919050565b7f455243373231456e756d657261626c653a206f776e657220696e646578206f7560008201527f74206f6620626f756e6473000000000000000000000000000000000000000000602082015250565b7f4552433732313a207472616e7366657220746f206e6f6e20455243373231526560008201527f63656976657220696d706c656d656e7465720000000000000000000000000000602082015250565b7f4f776e61626c653a206e6577206f776e657220697320746865207a65726f206160008201527f6464726573730000000000000000000000000000000000000000000000000000602082015250565b7f4552433732313a20746f6b656e20616c7265616479206d696e74656400000000600082015250565b7f496e73756666696369656e742046756e64730000000000000000000000000000600082015250565b7f4552433732313a207472616e7366657220746f20746865207a65726f2061646460008201527f7265737300000000000000000000000000000000000000000000000000000000602082015250565b7f4552433732313a20617070726f766520746f2063616c6c657200000000000000600082015250565b7f4552433732313a206f70657261746f7220717565727920666f72206e6f6e657860008201527f697374656e7420746f6b656e0000000000000000000000000000000000000000602082015250565b7f757365722077616c6c65742061646472657373206973206e6f7420776869746560008201527f6c69737465640000000000000000000000000000000000000000000000000000602082015250565b7f4552433732313a20617070726f76652063616c6c6572206973206e6f74206f7760008201527f6e6572206e6f7220617070726f76656420666f7220616c6c0000000000000000602082015250565b7f4d6178206d696e7420616d6f756e742065786365656465640000000000000000600082015250565b7f4552433732313a2062616c616e636520717565727920666f7220746865207a6560008201527f726f206164647265737300000000000000000000000000000000000000000000602082015250565b7f4552433732313a206f776e657220717565727920666f72206e6f6e657869737460008201527f656e7420746f6b656e0000000000000000000000000000000000000000000000602082015250565b7f4d6178204e4654206c696d697420657863656564656400000000000000000000600082015250565b7f4552433732313a206d696e7420746f20746865207a65726f2061646472657373600082015250565b7f6e65656420746f206d696e742061746c656173742031204e4654000000000000600082015250565b7f4552433732313a20617070726f76656420717565727920666f72206e6f6e657860008201527f697374656e7420746f6b656e0000000000000000000000000000000000000000602082015250565b7f4f776e61626c653a2063616c6c6572206973206e6f7420746865206f776e6572600082015250565b7f4552433732313a207472616e73666572206f6620746f6b656e2074686174206960008201527f73206e6f74206f776e0000000000000000000000000000000000000000000000602082015250565b7f4552433732314d657461646174613a2055524920717565727920666f72206e6f60008201527f6e6578697374656e7420746f6b656e0000000000000000000000000000000000602082015250565b7f4d6178204e465420706572206164647265737320657863656564656400000000600082015250565b7f4552433732313a20617070726f76616c20746f2063757272656e74206f776e6560008201527f7200000000000000000000000000000000000000000000000000000000000000602082015250565b50565b7f4552433732313a207472616e736665722063616c6c6572206973206e6f74206f60008201527f776e6572206e6f7220617070726f766564000000000000000000000000000000602082015250565b7f455243373231456e756d657261626c653a20676c6f62616c20696e646578206f60008201527f7574206f6620626f756e64730000000000000000000000000000000000000000602082015250565b7f5468697320636f6e747261637420697320706175736564000000000000000000600082015250565b614fd28161472b565b8114614fdd57600080fd5b50565b614fe98161473d565b8114614ff457600080fd5b50565b61500081614749565b811461500b57600080fd5b50565b61501781614795565b811461502257600080fd5b5056fea2646970667358221220dc83d3dab2e06a942318237bef9bfe0c843251f5f801966a83002b767f2c2ff764736f6c63430008030033",
  "linkReferences": {},
  "deployedLinkReferences": {}
}